:100000000C945C000C946E000C946E000C946E00CA
:100010000C946E000C946E000C946E000C946E00A8
:100020000C946E000C946E000C946E000C946E0098
:100030000C946E000C946E000C946E000C946E0088
:100040000C9474010C946E000C946E000C946E0071
:100050000C946E000C946E000C946E000C946E0068
:100060000C946E000C946E00000000080002010069
:100070000003040700000000000000000000000072
:10008000250028002B0000000000240027002A0083
:10009000040404040404040402020202020203032E
:1000A0000303030301020408102040800102040836
:1000B000102001020408102011241FBECFEFD8E049
:1000C000DEBFCDBF21E0A0E0B1E001C01D92A930AC
:1000D000B207E1F70E94BE010C94D6010C94000017
:1000E00090E0FC01EC55FF4F2491FC01E057FF4FDD
:1000F0008491882399F090E0880F991FFC01EA57BA
:10010000FF4FA591B491FC01E458FF4F8591949164
:100110008FB7F894EC91E22BEC938FBF089590E0A9
:10012000FC01E859FF4F2491FC01EC55FF4F34913D
:10013000FC01E057FF4FE491EE2309F43CC0222379
:1001400039F1233091F038F42130A9F0223001F553
:1001500084B58F7D12C0273091F02830A1F0243073
:10016000B9F4809180008F7D03C0809180008F77EB
:10017000809380000DC084B58F7784BD09C08091C5
:10018000B0008F7703C08091B0008F7D8093B00066
:10019000F0E0EE0FFF1FE458FF4FA591B4919FB719
:1001A000F894611104C08C913095382302C0EC9111
:1001B0003E2B3C939FBF0895789484B5826084BDA4
:1001C00084B5816084BD85B5826085BD85B581605B
:1001D00085BDEEE6F0E0808181608083E1E8F0E0BB
:1001E0001082808182608083808181608083E0E8EA
:1001F000F0E0808181608083E1EBF0E080818460C9
:100200008083E0EBF0E0808181608083EAE7F0E0CA
:10021000808184608083808182608083808181602E
:1002200080838081806880831092C10008953FB7E9
:10023000F8948091050190910601A0910701B09179
:10024000080126B5A89B05C02F3F19F00196A11DF6
:10025000B11D3FBFBA2FA92F982F8827820F911D5C
:10026000A11DB11DBC01CD0142E0660F771F881FA3
:10027000991F4A95D1F708958F929F92AF92BF929E
:10028000CF92DF92EF92FF920E9417014B015C0127
:1002900084EFC82EDD24D394E12CF12C0E941701A9
:1002A000DC01CB0188199909AA09BB09883E934052
:1002B000A105B10598F321E0C21AD108E108F108BF
:1002C00088EE880E83E0981EA11CB11CC114D104D5
:1002D000E104F10419F7FF90EF90DF90CF90BF9009
:1002E000AF909F908F9008951F920F920FB60F922C
:1002F00011242F933F938F939F93AF93BF9380913C
:10030000010190910201A0910301B091040130918B
:10031000000123E0230F2D3720F40196A11DB11D0C
:1003200005C026E8230F0296A11DB11D20930001F0
:100330008093010190930201A0930301B093040103
:100340008091050190910601A0910701B0910801EB
:100350000196A11DB11D8093050190930601A09304
:100360000701B0930801BF91AF919F918F913F9189
:100370002F910F900FBE0F901F9018950E94DC00D8
:100380008DE00E947000C0E0D0E061E08DE00E944E
:100390008F000E943C0160E08DE00E948F000E946F
:1003A0003C01209791F30E940000EFCFF8940C9449
:0603B000D901F894FFCF13
:00000001FF
